:020000002100DD
:02000300811E5C
:1001000030D40D7581097509F07508A03275880124
:1001100075A881758801D2D4780079017A017B01B4
:10012000C2D475A0FFD282C280C281C283C285C2FE
:1001300086C2871203F5900600E493120412120897
:1001400000A370F574C09106120800D280D281120B
:100150000800C280C2811208003082FDD283AFA0A5
:10016000C283EF75F056A4793085F006F507750463
:100170000075050A121000A70509EE4F70F019E787
:100180002430120412B932F6745612041212080006
:1001900080B230D40D7581097509F075080032758B
:1001A0008801780179007A017B01C2D475880175D4
:1001B000A88175A0FFD282C280C281C283D285C2CB
:1001C00086C28771F590060DE4931204121208009E
:1001D000A370F574C09106120800D280D281120873
:1001E00000C280C2811208003082FDD283AFA0C25B
:1001F00083EF74FF9FF9EF89F08475F00A8424304F
:10020000120412E5F02430120412744B120412741A
:1002100020120412744F1204127468120412746DC6
:1002200012041280AE30D40D7581097509F075087D
:100230000732758801780179017A007B01C2D47593
:0C024000880175A88175A0FFD282C280E1
:10024C00C281C283C285D286C28771F5900619E439
:10025C0093120412120800A370F574C091061208D0
:10026C0000D280D281120800C280C28112080030F4
:10027C0082FDD283AFA0C283EF75F014A4120816CE
:10028C00746D91127456911280D030D40D75810911
:10029C007509F075080B32758801780179017A01BE
:1002AC007B00C2D475880175A88171F5900625E490
:1002BC0093120412120800A370F574C0910675898C
:1002CC0015D2B4758AEF758CD8D28C7814758BB026
:1002DC00758D3CD28E208D4D308FFAC28FC28ED848
:1002EC00ECC28C8000C28CC28DC28EC28F758915F7
:1002FC00D2B4758A00758C00D28C7814758BB0755D
:10030C008D3CD28E308FFDC28FC28ED8EFC28CAC9A
:10031C008AAD8C8DF0EC1208167448120412747AA3
:10032C001204128095C28CC28DC28EC28F75891533
:10033C00D2B4758AEF758CD8D28C7802758BB07567
:10034C008D3CD28E208D55308FFAC28FC28ED8EC58
:10035C00C28C8000C28CC28DC28EC28F758915D2A0
:10036C00B4758A00758C00D28C7802758BB0758D43
:10037C003CD28ED28E308FFDC28FC28ED8EDC28C05
:10038C00AC8AAD8C8DF0EC12081674301204127419
:04039C0048120412ED
:1003A000747A1204120202C6C28CC28DC28EC28F2F
:1003B000758915D2B4758A00758C00D28C78027557
:1003C0008BEF758DD8D28ED28E308FFDC28FC28EBC
:1003D000D8EDC28CAC8AAD8C8DF0EC12081674305E
:1003E00012041274301204127448120412747A1235
:1003F00004120202C674389106740E9106740191BB
:10040000067406910622F590C2B6D2B7120800C251
:10041000B722F590D2B6D2B7120800C2B722D2D412
:10042000B80109B90109BA0109BB01091201921207
:080430000225120296120100E0
:100800007B327CFFDCFEDBFA227D087EFA7FFADF9A
:10081000FEDEFADDF622793085F006F50775040074
:1008200075050A121000A70509EE4F70F019E724AC
:0808300030120412B930F62267
:10100000C2D5EC30E709B2D5E4C39DFDE49CFCEE0B
:1010100030E715B2D5E4C39FFFE49EFE121036C33D
:10102000E49DFDE49CFC800312103630D507C3E438
:101030009FFFE49EFE22BC000BBE0029EF8DF084D2
:10104000FFADF022E4CCF875F008EF2FFFEE33FE91
:10105000EC33FCEE9DEC984005FCEE9DFE0FD5F0C8
:10106000E9E4CEFD22EDF8F5F0EE8420D21CFEADD1
:10107000F075F008EF2FFFED33FD4007985006D5CF
:0B108000F0F222C398FD0FD5F0EA2229
:03F0000002019F6B
:03F00700020232D0
:03F00B000202A35B
:03F0A00002010D5D
:10060000414320524D5320564F4C542D00524553D8
:10061000495354414E43452D00444320564F4C54BA
:0F0620004147452D004652455155454E4359001F
:00000001FF
